{
  "_format": "hh-sol-artifact-1",
  "contractName": "TokenTBC",
  "sourceName": "contracts/TokenTBC.sol",
  "abi": [
    {
      "inputs": [],
      "stateMutability": "nonpayable",
      "type": "constructor"
    },
    {
      "inputs": [],
      "name": "InvalidShortString",
      "type": "error"
    },
    {
      "inputs": [
        {
          "internalType": "string",
          "name": "str",
          "type": "string"
        }
      ],
      "name": "StringTooLong",
      "type": "error"
    },
    {
      "anonymous": false,
      "inputs": [
        {
          "indexed": true,
          "internalType": "address",
          "name": "owner",
          "type": "address"
        },
        {
          "indexed": true,
          "internalType": "address",
          "name": "spender",
          "type": "address"
        },
        {
          "indexed": false,
          "internalType": "uint256",
          "name": "value",
          "type": "uint256"
        }
      ],
      "name": "Approval",
      "type": "event"
    },
    {
      "anonymous": false,
      "inputs": [],
      "name": "EIP712DomainChanged",
      "type": "event"
    },
    {
      "anonymous": false,
      "inputs": [
        {
          "indexed": true,
          "internalType": "address",
          "name": "from",
          "type": "address"
        },
        {
          "indexed": true,
          "internalType": "address",
          "name": "to",
          "type": "address"
        },
        {
          "indexed": false,
          "internalType": "uint256",
          "name": "value",
          "type": "uint256"
        }
      ],
      "name": "Transfer",
      "type": "event"
    },
    {
      "inputs": [],
      "name": "DOMAIN_SEPARATOR",
      "outputs": [
        {
          "internalType": "bytes32",
          "name": "",
          "type": "bytes32"
        }
      ],
      "stateMutability": "view",
      "type": "function"
    },
    {
      "inputs": [],
      "name": "admin",
      "outputs": [
        {
          "internalType": "address",
          "name": "",
          "type": "address"
        }
      ],
      "stateMutability": "view",
      "type": "function"
    },
    {
      "inputs": [
        {
          "internalType": "address",
          "name": "owner",
          "type": "address"
        },
        {
          "internalType": "address",
          "name": "spender",
          "type": "address"
        }
      ],
      "name": "allowance",
      "outputs": [
        {
          "internalType": "uint256",
          "name": "",
          "type": "uint256"
        }
      ],
      "stateMutability": "view",
      "type": "function"
    },
    {
      "inputs": [
        {
          "internalType": "address",
          "name": "spender",
          "type": "address"
        },
        {
          "internalType": "uint256",
          "name": "amount",
          "type": "uint256"
        }
      ],
      "name": "approve",
      "outputs": [
        {
          "internalType": "bool",
          "name": "",
          "type": "bool"
        }
      ],
      "stateMutability": "nonpayable",
      "type": "function"
    },
    {
      "inputs": [
        {
          "internalType": "address",
          "name": "account",
          "type": "address"
        }
      ],
      "name": "balanceOf",
      "outputs": [
        {
          "internalType": "uint256",
          "name": "",
          "type": "uint256"
        }
      ],
      "stateMutability": "view",
      "type": "function"
    },
    {
      "inputs": [
        {
          "internalType": "address",
          "name": "owner",
          "type": "address"
        },
        {
          "internalType": "uint256",
          "name": "amount",
          "type": "uint256"
        }
      ],
      "name": "burn",
      "outputs": [],
      "stateMutability": "nonpayable",
      "type": "function"
    },
    {
      "inputs": [],
      "name": "decimals",
      "outputs": [
        {
          "internalType": "uint8",
          "name": "",
          "type": "uint8"
        }
      ],
      "stateMutability": "view",
      "type": "function"
    },
    {
      "inputs": [
        {
          "internalType": "address",
          "name": "spender",
          "type": "address"
        },
        {
          "internalType": "uint256",
          "name": "subtractedValue",
          "type": "uint256"
        }
      ],
      "name": "decreaseAllowance",
      "outputs": [
        {
          "internalType": "bool",
          "name": "",
          "type": "bool"
        }
      ],
      "stateMutability": "nonpayable",
      "type": "function"
    },
    {
      "inputs": [],
      "name": "eip712Domain",
      "outputs": [
        {
          "internalType": "bytes1",
          "name": "fields",
          "type": "bytes1"
        },
        {
          "internalType": "string",
          "name": "name",
          "type": "string"
        },
        {
          "internalType": "string",
          "name": "version",
          "type": "string"
        },
        {
          "internalType": "uint256",
          "name": "chainId",
          "type": "uint256"
        },
        {
          "internalType": "address",
          "name": "verifyingContract",
          "type": "address"
        },
        {
          "internalType": "bytes32",
          "name": "salt",
          "type": "bytes32"
        },
        {
          "internalType": "uint256[]",
          "name": "extensions",
          "type": "uint256[]"
        }
      ],
      "stateMutability": "view",
      "type": "function"
    },
    {
      "inputs": [
        {
          "internalType": "address",
          "name": "spender",
          "type": "address"
        },
        {
          "internalType": "uint256",
          "name": "addedValue",
          "type": "uint256"
        }
      ],
      "name": "increaseAllowance",
      "outputs": [
        {
          "internalType": "bool",
          "name": "",
          "type": "bool"
        }
      ],
      "stateMutability": "nonpayable",
      "type": "function"
    },
    {
      "inputs": [
        {
          "internalType": "address",
          "name": "to",
          "type": "address"
        },
        {
          "internalType": "uint256",
          "name": "amount",
          "type": "uint256"
        }
      ],
      "name": "mint",
      "outputs": [],
      "stateMutability": "nonpayable",
      "type": "function"
    },
    {
      "inputs": [],
      "name": "name",
      "outputs": [
        {
          "internalType": "string",
          "name": "",
          "type": "string"
        }
      ],
      "stateMutability": "view",
      "type": "function"
    },
    {
      "inputs": [
        {
          "internalType": "address",
          "name": "owner",
          "type": "address"
        }
      ],
      "name": "nonces",
      "outputs": [
        {
          "internalType": "uint256",
          "name": "",
          "type": "uint256"
        }
      ],
      "stateMutability": "view",
      "type": "function"
    },
    {
      "inputs": [
        {
          "internalType": "address",
          "name": "owner",
          "type": "address"
        },
        {
          "internalType": "address",
          "name": "spender",
          "type": "address"
        },
        {
          "internalType": "uint256",
          "name": "value",
          "type": "uint256"
        },
        {
          "internalType": "uint256",
          "name": "deadline",
          "type": "uint256"
        },
        {
          "internalType": "uint8",
          "name": "v",
          "type": "uint8"
        },
        {
          "internalType": "bytes32",
          "name": "r",
          "type": "bytes32"
        },
        {
          "internalType": "bytes32",
          "name": "s",
          "type": "bytes32"
        }
      ],
      "name": "permit",
      "outputs": [],
      "stateMutability": "nonpayable",
      "type": "function"
    },
    {
      "inputs": [],
      "name": "symbol",
      "outputs": [
        {
          "internalType": "string",
          "name": "",
          "type": "string"
        }
      ],
      "stateMutability": "view",
      "type": "function"
    },
    {
      "inputs": [],
      "name": "totalSupply",
      "outputs": [
        {
          "internalType": "uint256",
          "name": "",
          "type": "uint256"
        }
      ],
      "stateMutability": "view",
      "type": "function"
    },
    {
      "inputs": [
        {
          "internalType": "address",
          "name": "to",
          "type": "address"
        },
        {
          "internalType": "uint256",
          "name": "amount",
          "type": "uint256"
        }
      ],
      "name": "transfer",
      "outputs": [
        {
          "internalType": "bool",
          "name": "",
          "type": "bool"
        }
      ],
      "stateMutability": "nonpayable",
      "type": "function"
    },
    {
      "inputs": [
        {
          "internalType": "address",
          "name": "from",
          "type": "address"
        },
        {
          "internalType": "address",
          "name": "to",
          "type": "address"
        },
        {
          "internalType": "uint256",
          "name": "amount",
          "type": "uint256"
        }
      ],
      "name": "transferFrom",
      "outputs": [
        {
          "internalType": "bool",
          "name": "",
          "type": "bool"
        }
      ],
      "stateMutability": "nonpayable",
      "type": "function"
    },
    {
      "inputs": [
        {
          "internalType": "address",
          "name": "newAdmin",
          "type": "address"
        }
      ],
      "name": "updateAdmin",
      "outputs": [],
      "stateMutability": "nonpayable",
      "type": "function"
    }
  ],
  "bytecode": "0x6101606040523480156200001257600080fd5b506040518060400160405280600a8152602001692a37b1329021b430b4b760b11b8152506040518060400160405280600381526020016254424360e81b8152508180604051806040016040528060018152602001603160f81b815250848481600390816200008191906200028f565b5060046200009082826200028f565b50620000a29150839050600562000165565b61012052620000b381600662000165565b61014052815160208084019190912060e052815190820120610100524660a0526200014160e05161010051604080517f8b73c3c69bb8fe3d512ecc4cf759cc79239f7b179b0ffacaa9a75d522b39400f60208201529081019290925260608201524660808201523060a082015260009060c00160405160208183030381529060405280519060200120905090565b60805250503060c0525050600980546001600160a01b0319163317905550620003d0565b600060208351101562000185576200017d836200019e565b905062000198565b816200019284826200028f565b5060ff90505b92915050565b600080829050601f81511115620001d5578260405163305a27a960e01b8152600401620001cc91906200035b565b60405180910390fd5b8051620001e282620003ab565b179392505050565b634e487b7160e01b600052604160045260246000fd5b600181811c908216806200021557607f821691505b6020821081036200023657634e487b7160e01b600052602260045260246000fd5b50919050565b601f8211156200028a57600081815260208120601f850160051c81016020861015620002655750805b601f850160051c820191505b81811015620002865782815560010162000271565b5050505b505050565b81516001600160401b03811115620002ab57620002ab620001ea565b620002c381620002bc845462000200565b846200023c565b602080601f831160018114620002fb5760008415620002e25750858301515b600019600386901b1c1916600185901b17855562000286565b600085815260208120601f198616915b828110156200032c578886015182559484019460019091019084016200030b565b50858210156200034b5787850151600019600388901b60f8161c191681555b5050505050600190811b01905550565b600060208083528351808285015260005b818110156200038a578581018301518582016040015282016200036c565b506000604082860101526040601f19601f8301168501019250505092915050565b80516020808301519190811015620002365760001960209190910360031b1b16919050565b60805160a05160c05160e05161010051610120516101405161144c6200042b60003960006104600152600061043501526000610b7401526000610b4c01526000610aa701526000610ad101526000610afb015261144c6000f3fe608060405234801561001057600080fd5b50600436106101215760003560e01c80637ecebe00116100ad578063a9059cbb11610071578063a9059cbb14610250578063d505accf14610263578063dd62ed3e14610276578063e2f273bd14610289578063f851a4401461029c57600080fd5b80637ecebe00146101f457806384b0196e1461020757806395d89b41146102225780639dc29fac1461022a578063a457c2d71461023d57600080fd5b8063313ce567116100f4578063313ce5671461018c5780633644e5151461019b57806339509351146101a357806340c10f19146101b657806370a08231146101cb57600080fd5b806306fdde0314610126578063095ea7b31461014457806318160ddd1461016757806323b872dd14610179575b600080fd5b61012e6102c7565b60405161013b9190611194565b60405180910390f35b6101576101523660046111ca565b610359565b604051901515815260200161013b565b6002545b60405190815260200161013b565b6101576101873660046111f4565b610373565b6040516012815260200161013b565b61016b610397565b6101576101b13660046111ca565b6103a6565b6101c96101c43660046111ca565b6103c8565b005b61016b6101d9366004611230565b6001600160a01b031660009081526020819052604090205490565b61016b610202366004611230565b610409565b61020f610427565b60405161013b979695949392919061124b565b61012e6104b0565b6101c96102383660046111ca565b6104bf565b61015761024b3660046111ca565b6104f3565b61015761025e3660046111ca565b61056e565b6101c96102713660046112e1565b61057c565b61016b610284366004611354565b6106e0565b6101c9610297366004611230565b61070b565b6009546102af906001600160a01b031681565b6040516001600160a01b03909116815260200161013b565b6060600380546102d690611387565b80601f016020809104026020016040519081016040528092919081815260200182805461030290611387565b801561034f5780601f106103245761010080835404028352916020019161034f565b820191906000526020600020905b81548152906001019060200180831161033257829003601f168201915b5050505050905090565b600033610367818585610757565b60019150505b92915050565b60003361038185828561087c565b61038c8585856108f6565b506001949350505050565b60006103a1610a9a565b905090565b6000336103678185856103b983836106e0565b6103c391906113bb565b610757565b6009546001600160a01b031633146103fb5760405162461bcd60e51b81526004016103f2906113dc565b60405180910390fd5b6104058282610bc5565b5050565b6001600160a01b03811660009081526007602052604081205461036d565b60006060808280808361045b7f00000000000000000000000000000000000000000000000000000000000000006005610c84565b6104867f00000000000000000000000000000000000000000000000000000000000000006006610c84565b60408051600080825260208201909252600f60f81b9b939a50919850469750309650945092509050565b6060600480546102d690611387565b6009546001600160a01b031633146104e95760405162461bcd60e51b81526004016103f2906113dc565b6104058282610d2f565b6000338161050182866106e0565b9050838110156105615760405162461bcd60e51b815260206004820152602560248201527f45524332303a2064656372656173656420616c6c6f77616e63652062656c6f77604482015264207a65726f60d81b60648201526084016103f2565b61038c8286868403610757565b6000336103678185856108f6565b834211156105cc5760405162461bcd60e51b815260206004820152601d60248201527f45524332305065726d69743a206578706972656420646561646c696e6500000060448201526064016103f2565b60007f6e71edae12b1b97f4d1f60370fef10105fa2faae0126114a169c64845d6126c98888886105fb8c610e59565b6040805160208101969096526001600160a01b0394851690860152929091166060840152608083015260a082015260c0810186905260e001604051602081830303815290604052805190602001209050600061065682610e81565b9050600061066682878787610eae565b9050896001600160a01b0316816001600160a01b0316146106c95760405162461bcd60e51b815260206004820152601e60248201527f45524332305065726d69743a20696e76616c6964207369676e6174757265000060448201526064016103f2565b6106d48a8a8a610757565b50505050505050505050565b6001600160a01b03918216600090815260016020908152604080832093909416825291909152205490565b6009546001600160a01b031633146107355760405162461bcd60e51b81526004016103f2906113dc565b600980546001600160a01b0319166001600160a01b0392909216919091179055565b6001600160a01b0383166107b95760405162461bcd60e51b8152602060048201526024808201527f45524332303a20617070726f76652066726f6d20746865207a65726f206164646044820152637265737360e01b60648201526084016103f2565b6001600160a01b03821661081a5760405162461bcd60e51b815260206004820152602260248201527f45524332303a20617070726f766520746f20746865207a65726f206164647265604482015261737360f01b60648201526084016103f2565b6001600160a01b0383811660008181526001602090815260408083209487168084529482529182902085905590518481527f8c5be1e5ebec7d5bd14f71427d1e84f3dd0314c0f7b2291e5b200ac8c7c3b92591015b60405180910390a3505050565b600061088884846106e0565b905060001981146108f057818110156108e35760405162461bcd60e51b815260206004820152601d60248201527f45524332303a20696e73756666696369656e7420616c6c6f77616e636500000060448201526064016103f2565b6108f08484848403610757565b50505050565b6001600160a01b03831661095a5760405162461bcd60e51b815260206004820152602560248201527f45524332303a207472616e736665722066726f6d20746865207a65726f206164604482015264647265737360d81b60648201526084016103f2565b6001600160a01b0382166109bc5760405162461bcd60e51b815260206004820152602360248201527f45524332303a207472616e7366657220746f20746865207a65726f206164647260448201526265737360e81b60648201526084016103f2565b6001600160a01b03831660009081526020819052604090205481811015610a345760405162461bcd60e51b815260206004820152602660248201527f45524332303a207472616e7366657220616d6f756e7420657863656564732062604482015265616c616e636560d01b60648201526084016103f2565b6001600160a01b03848116600081815260208181526040808320878703905593871680835291849020805487019055925185815290927fddf252ad1be2c89b69c2b068fc378daa952ba7f163c4a11628f55a4df523b3ef910160405180910390a36108f0565b6000306001600160a01b037f000000000000000000000000000000000000000000000000000000000000000016148015610af357507f000000000000000000000000000000000000000000000000000000000000000046145b15610b1d57507f000000000000000000000000000000000000000000000000000000000000000090565b6103a1604080517f8b73c3c69bb8fe3d512ecc4cf759cc79239f7b179b0ffacaa9a75d522b39400f60208201527f0000000000000000000000000000000000000000000000000000000000000000918101919091527f000000000000000000000000000000000000000000000000000000000000000060608201524660808201523060a082015260009060c00160405160208183030381529060405280519060200120905090565b6001600160a01b038216610c1b5760405162461bcd60e51b815260206004820152601f60248201527f45524332303a206d696e7420746f20746865207a65726f20616464726573730060448201526064016103f2565b8060026000828254610c2d91906113bb565b90915550506001600160a01b038216600081815260208181526040808320805486019055518481527fddf252ad1be2c89b69c2b068fc378daa952ba7f163c4a11628f55a4df523b3ef910160405180910390a35050565b606060ff8314610c9e57610c9783610ed6565b905061036d565b818054610caa90611387565b80601f0160208091040260200160405190810160405280929190818152602001828054610cd690611387565b8015610d235780601f10610cf857610100808354040283529160200191610d23565b820191906000526020600020905b815481529060010190602001808311610d0657829003601f168201915b5050505050905061036d565b6001600160a01b038216610d8f5760405162461bcd60e51b815260206004820152602160248201527f45524332303a206275726e2066726f6d20746865207a65726f206164647265736044820152607360f81b60648201526084016103f2565b6001600160a01b03821660009081526020819052604090205481811015610e035760405162461bcd60e51b815260206004820152602260248201527f45524332303a206275726e20616d6f756e7420657863656564732062616c616e604482015261636560f01b60648201526084016103f2565b6001600160a01b0383166000818152602081815260408083208686039055600280548790039055518581529192917fddf252ad1be2c89b69c2b068fc378daa952ba7f163c4a11628f55a4df523b3ef910161086f565b6001600160a01b03811660009081526007602052604090208054600181018255905b50919050565b600061036d610e8e610a9a565b8360405161190160f01b8152600281019290925260228201526042902090565b6000806000610ebf87878787610f15565b91509150610ecc81610fd9565b5095945050505050565b60606000610ee383611126565b604080516020808252818301909252919250600091906020820181803683375050509182525060208101929092525090565b6000807f7fffffffffffffffffffffffffffffff5d576e7357a4501ddfe92f46681b20a0831115610f4c5750600090506003610fd0565b6040805160008082526020820180845289905260ff881692820192909252606081018690526080810185905260019060a0016020604051602081039080840390855afa158015610fa0573d6000803e3d6000fd5b5050604051601f1901519150506001600160a01b038116610fc957600060019250925050610fd0565b9150600090505b94509492505050565b6000816004811115610fed57610fed611400565b03610ff55750565b600181600481111561100957611009611400565b036110565760405162461bcd60e51b815260206004820152601860248201527f45434453413a20696e76616c6964207369676e6174757265000000000000000060448201526064016103f2565b600281600481111561106a5761106a611400565b036110b75760405162461bcd60e51b815260206004820152601f60248201527f45434453413a20696e76616c6964207369676e6174757265206c656e6774680060448201526064016103f2565b60038160048111156110cb576110cb611400565b036111235760405162461bcd60e51b815260206004820152602260248201527f45434453413a20696e76616c6964207369676e6174757265202773272076616c604482015261756560f01b60648201526084016103f2565b50565b600060ff8216601f81111561036d57604051632cd44ac360e21b815260040160405180910390fd5b6000815180845260005b8181101561117457602081850181015186830182015201611158565b506000602082860101526020601f19601f83011685010191505092915050565b6020815260006111a7602083018461114e565b9392505050565b80356001600160a01b03811681146111c557600080fd5b919050565b600080604083850312156111dd57600080fd5b6111e6836111ae565b946020939093013593505050565b60008060006060848603121561120957600080fd5b611212846111ae565b9250611220602085016111ae565b9150604084013590509250925092565b60006020828403121561124257600080fd5b6111a7826111ae565b60ff60f81b881681526000602060e08184015261126b60e084018a61114e565b838103604085015261127d818a61114e565b606085018990526001600160a01b038816608086015260a0850187905284810360c0860152855180825283870192509083019060005b818110156112cf578351835292840192918401916001016112b3565b50909c9b505050505050505050505050565b600080600080600080600060e0888a0312156112fc57600080fd5b611305886111ae565b9650611313602089016111ae565b95506040880135945060608801359350608088013560ff8116811461133757600080fd5b9699959850939692959460a0840135945060c09093013592915050565b6000806040838503121561136757600080fd5b611370836111ae565b915061137e602084016111ae565b90509250929050565b600181811c9082168061139b57607f821691505b602082108103610e7b57634e487b7160e01b600052602260045260246000fd5b8082018082111561036d57634e487b7160e01b600052601160045260246000fd5b6020808252600a908201526937b7363c9030b236b4b760b11b604082015260600190565b634e487b7160e01b600052602160045260246000fdfea2646970667358221220ec8c1925d21f25a9b91c6911ed3e114d22680df4fa0f8b20da7a9ff6d3e92d3c64736f6c63430008140033",
  "linkReferences": {},
  "deployedLinkReferences": {}
}