{
  "_format": "hh-sol-artifact-1",
  "contractName": "Bridge",
  "sourceName": "contracts/bridge.sol",
  "abi": [
    {
      "inputs": [
        {
          "internalType": "address",
          "name": "token",
          "type": "address"
        }
      ],
      "stateMutability": "nonpayable",
      "type": "constructor"
    },
    {
      "anonymous": false,
      "inputs": [
        {
          "indexed": false,
          "internalType": "address",
          "name": "from",
          "type": "address"
        },
        {
          "indexed": false,
          "internalType": "address",
          "name": "to",
          "type": "address"
        },
        {
          "indexed": false,
          "internalType": "uint256",
          "name": "amount",
          "type": "uint256"
        },
        {
          "indexed": false,
          "internalType": "uint256",
          "name": "date",
          "type": "uint256"
        },
        {
          "indexed": false,
          "internalType": "uint256",
          "name": "nonce",
          "type": "uint256"
        },
        {
          "indexed": true,
          "internalType": "enum BridgeBase.StepBurn",
          "name": "step",
          "type": "uint8"
        }
      ],
      "name": "Burn",
      "type": "event"
    },
    {
      "anonymous": false,
      "inputs": [
        {
          "indexed": false,
          "internalType": "address",
          "name": "from",
          "type": "address"
        },
        {
          "indexed": false,
          "internalType": "address",
          "name": "to",
          "type": "address"
        },
        {
          "indexed": false,
          "internalType": "uint256",
          "name": "amount",
          "type": "uint256"
        },
        {
          "indexed": false,
          "internalType": "uint256",
          "name": "date",
          "type": "uint256"
        },
        {
          "indexed": false,
          "internalType": "uint256",
          "name": "nonce",
          "type": "uint256"
        },
        {
          "indexed": true,
          "internalType": "enum BridgeBase.StepMint",
          "name": "step",
          "type": "uint8"
        }
      ],
      "name": "Mint",
      "type": "event"
    },
    {
      "inputs": [],
      "name": "admin",
      "outputs": [
        {
          "internalType": "address",
          "name": "",
          "type": "address"
        }
      ],
      "stateMutability": "view",
      "type": "function"
    },
    {
      "inputs": [
        {
          "internalType": "address",
          "name": "to",
          "type": "address"
        },
        {
          "internalType": "uint256",
          "name": "amount",
          "type": "uint256"
        },
        {
          "internalType": "uint256",
          "name": "deadline",
          "type": "uint256"
        },
        {
          "internalType": "uint8",
          "name": "v",
          "type": "uint8"
        },
        {
          "internalType": "bytes32",
          "name": "r",
          "type": "bytes32"
        },
        {
          "internalType": "bytes32",
          "name": "s",
          "type": "bytes32"
        }
      ],
      "name": "burn",
      "outputs": [],
      "stateMutability": "nonpayable",
      "type": "function"
    },
    {
      "inputs": [
        {
          "internalType": "address",
          "name": "newAdmin",
          "type": "address"
        }
      ],
      "name": "changeAdmin",
      "outputs": [],
      "stateMutability": "nonpayable",
      "type": "function"
    },
    {
      "inputs": [],
      "name": "getCurrentTimestamp",
      "outputs": [
        {
          "internalType": "uint256",
          "name": "",
          "type": "uint256"
        }
      ],
      "stateMutability": "view",
      "type": "function"
    },
    {
      "inputs": [
        {
          "internalType": "address",
          "name": "to",
          "type": "address"
        },
        {
          "internalType": "uint256",
          "name": "amount",
          "type": "uint256"
        },
        {
          "internalType": "uint256",
          "name": "otherChainNonce",
          "type": "uint256"
        }
      ],
      "name": "mint",
      "outputs": [],
      "stateMutability": "nonpayable",
      "type": "function"
    },
    {
      "inputs": [],
      "name": "nonce",
      "outputs": [
        {
          "internalType": "uint256",
          "name": "",
          "type": "uint256"
        }
      ],
      "stateMutability": "view",
      "type": "function"
    },
    {
      "inputs": [],
      "name": "pause",
      "outputs": [],
      "stateMutability": "nonpayable",
      "type": "function"
    },
    {
      "inputs": [],
      "name": "paused",
      "outputs": [
        {
          "internalType": "bool",
          "name": "",
          "type": "bool"
        }
      ],
      "stateMutability": "view",
      "type": "function"
    },
    {
      "inputs": [
        {
          "internalType": "uint256",
          "name": "",
          "type": "uint256"
        }
      ],
      "name": "processedNonces",
      "outputs": [
        {
          "internalType": "bool",
          "name": "",
          "type": "bool"
        }
      ],
      "stateMutability": "view",
      "type": "function"
    },
    {
      "inputs": [],
      "name": "token",
      "outputs": [
        {
          "internalType": "contract IToken",
          "name": "",
          "type": "address"
        }
      ],
      "stateMutability": "view",
      "type": "function"
    },
    {
      "inputs": [],
      "name": "unpause",
      "outputs": [],
      "stateMutability": "nonpayable",
      "type": "function"
    }
  ],
  "bytecode": "0x608060405234801561001057600080fd5b5060405161078538038061078583398101604081905261002f91610062565b600080546001600160a01b03199081163317909155600180546001600160a01b0390931692909116919091179055610092565b60006020828403121561007457600080fd5b81516001600160a01b038116811461008b57600080fd5b9392505050565b6106e4806100a16000396000f3fe608060405234801561001057600080fd5b50600436106100a95760003560e01c80638456cb59116100715780638456cb59146101105780638f2839701461011857806391dae5191461012b578063affed0e01461014e578063f851a44014610157578063fc0c546a1461018257600080fd5b8063156e29f6146100ae5780633f4ba83a146100c35780634cdce933146100cb5780635c975abb146100de5780636c9230db14610100575b600080fd5b6100c16100bc366004610595565b610195565b005b6100c161030c565b6100c16100d93660046105c8565b610342565b6004546100eb9060ff1681565b60405190151581526020015b60405180910390f35b425b6040519081526020016100f7565b6100c16104f4565b6100c1610126366004610628565b61052d565b6100eb61013936600461064a565b60036020526000908152604090205460ff1681565b61010260025481565b60005461016a906001600160a01b031681565b6040516001600160a01b0390911681526020016100f7565b60015461016a906001600160a01b031681565b6000546001600160a01b031633146101c85760405162461bcd60e51b81526004016101bf90610663565b60405180910390fd5b60008181526003602052604090205460ff16156102275760405162461bcd60e51b815260206004820152601a60248201527f7472616e7366657220616c72656164792070726f63657373656400000000000060448201526064016101bf565b60008181526003602052604090819020805460ff191660019081179091555490516340c10f1960e01b81526001600160a01b03858116600483015260248201859052909116906340c10f1990604401600060405180830381600087803b15801561029057600080fd5b505af11580156102a4573d6000803e3d6000fd5b50600092506102b1915050565b604080513381526001600160a01b0386166020820152908101849052426060820152608081018390527f570c70390ac75bd8343255086c77674f0c2028fb1b8fd318b55281883c60d4a09060a00160405180910390a2505050565b6000546001600160a01b031633146103365760405162461bcd60e51b81526004016101bf90610663565b6004805460ff19169055565b60045460ff161561038a5760405162461bcd60e51b815260206004820152601260248201527118dbdb9d1c9858dd081a5cc81c185d5cd95960721b60448201526064016101bf565b60015460405163d505accf60e01b8152336004820152306024820152604481018790526064810186905260ff8516608482015260a4810184905260c481018390526001600160a01b039091169063d505accf9060e401600060405180830381600087803b1580156103fa57600080fd5b505af115801561040e573d6000803e3d6000fd5b5050600154604051632770a7eb60e21b8152336004820152602481018990526001600160a01b039091169250639dc29fac9150604401600060405180830381600087803b15801561045e57600080fd5b505af1158015610472573d6000803e3d6000fd5b506000925061047f915050565b600254604080513381526001600160a01b038a1660208201528082018990524260608201526080810192909252517f035e9f83323f2b1848ac1d5992dc568426be21522955453e97ebf325a182a7609181900360a00190a2600280549060006104e783610687565b9190505550505050505050565b6000546001600160a01b0316331461051e5760405162461bcd60e51b81526004016101bf90610663565b6004805460ff19166001179055565b6000546001600160a01b031633146105575760405162461bcd60e51b81526004016101bf90610663565b600080546001600160a01b0319166001600160a01b0392909216919091179055565b80356001600160a01b038116811461059057600080fd5b919050565b6000806000606084860312156105aa57600080fd5b6105b384610579565b95602085013595506040909401359392505050565b60008060008060008060c087890312156105e157600080fd5b6105ea87610579565b95506020870135945060408701359350606087013560ff8116811461060e57600080fd5b9598949750929560808101359460a0909101359350915050565b60006020828403121561063a57600080fd5b61064382610579565b9392505050565b60006020828403121561065c57600080fd5b5035919050565b6020808252600a908201526937b7363c9030b236b4b760b11b604082015260600190565b6000600182016106a757634e487b7160e01b600052601160045260246000fd5b506001019056fea26469706673582212208def834d4b0a97f20c6f4db0cd6b816eaf841c36cd52ed59ae87d835407dd2a464736f6c63430008140033",
  "linkReferences": {},
  "deployedLinkReferences": {}
}