{
  "_format": "hh-sol-artifact-1",
  "contractName": "BridgeEth",
  "sourceName": "contracts/bridgeEth.sol",
  "abi": [
    {
      "inputs": [
        {
          "internalType": "address",
          "name": "token",
          "type": "address"
        }
      ],
      "stateMutability": "nonpayable",
      "type": "constructor"
    },
    {
      "anonymous": false,
      "inputs": [
        {
          "indexed": false,
          "internalType": "address",
          "name": "from",
          "type": "address"
        },
        {
          "indexed": false,
          "internalType": "address",
          "name": "to",
          "type": "address"
        },
        {
          "indexed": false,
          "internalType": "uint256",
          "name": "amount",
          "type": "uint256"
        },
        {
          "indexed": false,
          "internalType": "uint256",
          "name": "date",
          "type": "uint256"
        },
        {
          "indexed": false,
          "internalType": "uint256",
          "name": "nonce",
          "type": "uint256"
        },
        {
          "indexed": true,
          "internalType": "enum BridgeBase.StepBurn",
          "name": "step",
          "type": "uint8"
        }
      ],
      "name": "Burn",
      "type": "event"
    },
    {
      "anonymous": false,
      "inputs": [
        {
          "indexed": false,
          "internalType": "address",
          "name": "from",
          "type": "address"
        },
        {
          "indexed": false,
          "internalType": "address",
          "name": "to",
          "type": "address"
        },
        {
          "indexed": false,
          "internalType": "uint256",
          "name": "amount",
          "type": "uint256"
        },
        {
          "indexed": false,
          "internalType": "uint256",
          "name": "date",
          "type": "uint256"
        },
        {
          "indexed": false,
          "internalType": "uint256",
          "name": "nonce",
          "type": "uint256"
        },
        {
          "indexed": true,
          "internalType": "enum BridgeBase.StepMint",
          "name": "step",
          "type": "uint8"
        }
      ],
      "name": "Mint",
      "type": "event"
    },
    {
      "inputs": [],
      "name": "admin",
      "outputs": [
        {
          "internalType": "address",
          "name": "",
          "type": "address"
        }
      ],
      "stateMutability": "view",
      "type": "function"
    },
    {
      "inputs": [
        {
          "internalType": "address",
          "name": "to",
          "type": "address"
        },
        {
          "internalType": "uint256",
          "name": "amount",
          "type": "uint256"
        }
      ],
      "name": "burn",
      "outputs": [],
      "stateMutability": "nonpayable",
      "type": "function"
    },
    {
      "inputs": [
        {
          "internalType": "address",
          "name": "to",
          "type": "address"
        },
        {
          "internalType": "uint256",
          "name": "amount",
          "type": "uint256"
        },
        {
          "internalType": "uint256",
          "name": "otherChainNonce",
          "type": "uint256"
        }
      ],
      "name": "mint",
      "outputs": [],
      "stateMutability": "nonpayable",
      "type": "function"
    },
    {
      "inputs": [],
      "name": "nonce",
      "outputs": [
        {
          "internalType": "uint256",
          "name": "",
          "type": "uint256"
        }
      ],
      "stateMutability": "view",
      "type": "function"
    },
    {
      "inputs": [
        {
          "internalType": "uint256",
          "name": "",
          "type": "uint256"
        }
      ],
      "name": "processedNonces",
      "outputs": [
        {
          "internalType": "bool",
          "name": "",
          "type": "bool"
        }
      ],
      "stateMutability": "view",
      "type": "function"
    },
    {
      "inputs": [],
      "name": "token",
      "outputs": [
        {
          "internalType": "contract IToken",
          "name": "",
          "type": "address"
        }
      ],
      "stateMutability": "view",
      "type": "function"
    }
  ],
  "bytecode": "0x608060405234801561001057600080fd5b5060405161051a38038061051a83398101604081905261002f91610062565b600080546001600160a01b03199081163317909155600180546001600160a01b0390931692909116919091179055610092565b60006020828403121561007457600080fd5b81516001600160a01b038116811461008b57600080fd5b9392505050565b610479806100a16000396000f3fe608060405234801561001057600080fd5b50600436106100625760003560e01c8063156e29f61461006757806391dae5191461007c5780639dc29fac146100b4578063affed0e0146100c7578063f851a440146100de578063fc0c546a14610109575b600080fd5b61007a6100753660046103a6565b61011c565b005b61009f61008a3660046103d9565b60036020526000908152604090205460ff1681565b60405190151581526020015b60405180910390f35b61007a6100c23660046103f2565b6102ac565b6100d060025481565b6040519081526020016100ab565b6000546100f1906001600160a01b031681565b6040516001600160a01b0390911681526020016100ab565b6001546100f1906001600160a01b031681565b6000546001600160a01b031633146101685760405162461bcd60e51b815260206004820152600a60248201526937b7363c9030b236b4b760b11b60448201526064015b60405180910390fd5b60008181526003602052604090205460ff16156101c75760405162461bcd60e51b815260206004820152601a60248201527f7472616e7366657220616c72656164792070726f636573736564000000000000604482015260640161015f565b60008181526003602052604090819020805460ff191660019081179091555490516340c10f1960e01b81526001600160a01b03858116600483015260248201859052909116906340c10f1990604401600060405180830381600087803b15801561023057600080fd5b505af1158015610244573d6000803e3d6000fd5b5060009250610251915050565b604080513381526001600160a01b0386166020820152908101849052426060820152608081018390527f570c70390ac75bd8343255086c77674f0c2028fb1b8fd318b55281883c60d4a09060a00160405180910390a2505050565b600154604051632770a7eb60e21b8152336004820152602481018390526001600160a01b0390911690639dc29fac90604401600060405180830381600087803b1580156102f857600080fd5b505af115801561030c573d6000803e3d6000fd5b5060009250610319915050565b600254604080513381526001600160a01b03861660208201528082018590524260608201526080810192909252517f035e9f83323f2b1848ac1d5992dc568426be21522955453e97ebf325a182a7609181900360a00190a2600280549060006103818361041c565b91905055505050565b80356001600160a01b03811681146103a157600080fd5b919050565b6000806000606084860312156103bb57600080fd5b6103c48461038a565b95602085013595506040909401359392505050565b6000602082840312156103eb57600080fd5b5035919050565b6000806040838503121561040557600080fd5b61040e8361038a565b946020939093013593505050565b60006001820161043c57634e487b7160e01b600052601160045260246000fd5b506001019056fea264697066735822122027bd56197ecc535c4b7f1a3e698850ec6358c2eb054ec12c36d1c8ec41c275e264736f6c63430008140033",
  "linkReferences": {},
  "deployedLinkReferences": {}
}